:100000000C943A010C9462010C9462010C9462010C
:100010000C9462010C9462010C9462010C946201D4
:100020000C9462010C9462010C9462010C946201C4
:100030000C9462010C9462010C9462010C946201B4
:100040000C9479160C9462010C94E9160C94C31666
:100050000C9462010C9462010C9462010C94620194
:100060000C941B170C94620107634236B79BD8A708
:100070001A39685618AEBAAB558C1D3CB7CC5763CD
:10008000BD6DEDFD753EF6177231BF000000803F7B
:100090004E414E494E495459494E46CDCCCC3D0A6D
:1000A000D7233C17B7D13877CC2B329595E6241F50
:1000B000B14F0A000020410000C84200401C462009
:1000C000BCBE4CCA1B0E5AAEC59D742C002C002C15
:1000D000002C002C00232052657365740000000082
:1000E000000000000049CE03C34063C9411CABC8F7
:1000F0004179354142EB4895BF98F9A03D25B1D2F1
:10010000BFAAAB8ABF0A2980BEDCD55F3DFDD165A1
:10011000BFF64BAA3DDAFC7CBA6631BFBE7B3349E1
:10012000BC22AD1337756CB1BDE380803AB89B0536
:10013000B3FC382BBC8C1839B8000000004F1B08EA
:10014000BA77F78D350000000000000000A8DC340D
:10015000B2000000001283BCC000000000E926A528
:100160004100000000E926A541448B5B424CE3F2CC
:100170003D062FF8B8ECEFFD4200000000BE2E90C7
:10018000BC7596213DD76B1F3DA928C637A8AE9BED
:1001900037F068B0B46495D5B3C078ABB1260CAF76
:1001A0002F397494AEBED41DAB809821AB17A0211B
:1001B00026D90460A75804BDA054CC40A3A6E5EA04
:1001C0001A4CD9BB9E3BC26F940BDD9D9900000079
:1001D00000000087C300000000000000000080ABAA
:1001E000444152544953414E00250046414E3A0085
:1001F00025004854523A00526F523A0020202020E5
:100200002020200053503A0025005049443A004134
:10021000543A0042543A0045543A0030003A003013
:100220000000000000240027002A00000000002534
:100230000028002B00040404040404040402020245
:100240000202020303030303030102040810204017
:1002500080010204081020010204081020000000A0
:100260000800020100000304070000000000000075
:1002700000004B1811241FBECFEFD8E0DEBFCDBF6A
:1002800012E0A0E0B1E0EEE1FFE502C005900D92C2
:10029000A435B107D9F727E0A4E5B2E001C01D926B
:1002A000A130B207E1F711E0CAE3D1E004C0219721
:1002B000FE010E94B32CC933D107C9F70E94B51AB9
:1002C0000C948D2F0C9400004F925F926F927F924E
:1002D0008F929F92AF92BF92CF92DF92EF92FF9256
:1002E0000F931F93CF93DF9300D000D0CDB7DEB72D
:1002F0004B015C0129013A01E982FA820B831C83DC
:1003000020E030E0A9010E94F62887FDA3C020E08C
:1003100030E0A901C301B2010E94F62887FD9AC00E
:1003200020E030E0A901C801B7010E94F62887FD4E
:1003300091C0C092DA06D092DB068C2D817080933A
:10034000FB068092C0069092C106A092C206B092AF
:10035000C3064092C4065092C5066092C6067092CB
:10036000C706D801C7018093C8069093C906A09319
:10037000CA06B093CB066091EE067091EF068091AD
:10038000F0069091F1060E94FB2820E030E04AE759
:1003900054E40E94DB2A6B017C018092CC0690928F
:1003A000CD06A092CE06B092CF06AC019B01C30150
:1003B000B2010E945C292B013C014092D006509270
:1003C000D1066092D2067092D306A7019601698188
:1003D0007A818B819C810E94DB2A6B017C01C09217
:1003E000D406D092D506E092D606F092D706809138
:1003F000D8069091D906019769F5A501940160E0AE
:1004000070E0CB010E946E2A6093CC067093CD06FB
:100410008093CE069093CF06A301920160E070E036
:10042000CB010E946E2A6093D0067093D106809310
:10043000D2069093D306A701960160E070E0CB014D
:100440000E946E2A6093D4067093D5068093D606D8
:100450009093D7060F900F900F900F90DF91CF9150
:100460001F910F91FF90EF90DF90CF90BF90AF90D2
:100470009F908F907F906F905F904F9008954F92D4
:100480005F926F927F928F929F92AF92BF92CF9224
:10049000DF92EF92FF92CF93DF936B017C014901D2
:1004A0005A010E94E42B87FF67C0C092F206D092E7
:1004B000F306E092F406F092F5068092F60690922A
:1004C000F706A092F806B092F9068091FA06882302
:1004D00009F452C0C091DE06D091DF0648805980F1
:1004E0006A807B80A3019201C501B4010E94F628B5
:1004F00087FF25C088829982AA82BB828090E60607
:100500009090E706A090E806B090E906C090F60645
:10051000D090F706E090F806F090F906A701960152
:10052000C501B4010E94E42B1816B4F4C092E6068B
:10053000D092E706E092E806F092E9061DC0A3011A
:100540009201C701B6010E94E42B1816BCF6C882BE
:10055000D982EA82FB82D2CFC090F206D090F30615
:10056000E090F406F090F506A7019601C501B401EC
:100570000E94F62887FDDACFDF91CF91FF90EF90B0
:10058000DF90CF90BF90AF909F908F907F906F90B3
:100590005F904F900895089508959091740480910C
:1005A00073042FEF3FEF981748F4E92FF0E0E35B77
:1005B000FB4F208130E09F5F90937404C901089540
:1005C00090917404809173042FEF3FEF981748F4D3
:1005D000E92FF0E0E35BFB4F208130E09F5F9093D9
:1005E0007404C90108958091730490917404891B67
:1005F000990B08958F929F92AF92BF92CF92DF9204
:10060000EF92FF92E091DE06F091DF06C080D1808C
:10061000E280F380C092E606D092E706E092E80618
:10062000F092E906E091DC06F091DD06808191818F
:10063000A281B3818093EA069093EB06A093EC0627
:10064000B093ED068090F6069090F706A090F8061D
:10065000B090F906A5019401C701B6010E94E42BF0
:1006600018164CF48092E6069092E706A092E806EF
:10067000B092E90610C08090F2069090F306A09028
:10068000F406B090F506A5019401C701B6010E94D9
:10069000F62887FDE7CFFF90EF90DF90CF90BF90D7
:1006A000AF909F908F900895E6E1F6E02081318130
:1006B000DC0119963C932E93189791838083E8E18F
:1006C000F6E080818F5F8083089590E0FC01E35A1B
:1006D000FD4F2491FC01E75BFD4F3491FC01EB5C85
:1006E000FD4FE491EE23C9F0222339F0233001F1CC
:1006F000A8F4213019F1223029F1F0E0EE0FFF1FAC
:10070000E55DFD4FA591B4918FB7F894EC9161111F
:1007100026C030953E233C938FBF08952730A9F023
:100720002830C9F0243049F7809180008F7D03C0C4
:10073000809180008F7780938000DFCF84B58F77A2
:1007400084BDDBCF84B58F7DFBCF8091B0008F77E8
:100750008093B000D2CF8091B0008F7DF9CF3E2B37
:10076000DACFCF93DF9390E0FC01E75BFD4F24915C
:100770008B5C9D4FFC0184918823D1F090E0880F21
:10078000991FFC01EF5DFD4FA591B491FC01E55D62
:10079000FD4FC591D49161110EC09FB7F8948C9113
:1007A000E22FE0958E238C932881E223E8839FBF7C
:1007B000DF91CF9108958FB7F894EC91E22BEC93F1
:1007C0008FBFF6CF4F925F926F927F928F929F92E0
:1007D000AF92BF92EF92FF920F931F93CF93DF934D
:1007E0008C01EB018536910598F46536710508F0AA
:1007F00066C0892B91F061E089E00E94B1032097E7
:10080000A1F460E08AE00E94B103D0E0C0E011C032
:100810006536710510F0D0E0C0E060E089E00E942C
:10082000B1032097D1F110E000E061E08AE00E947E
:10083000B103E0901906F0901A068FEFE81AF80A53
:100840009701D8010E945F2A24E6822E912CA12CC8
:10085000B12CA50194010E94722C29019701DE019F
:100860000E945F2AA50194010E94722C5092890077
:100870004092880030938B0020938A00DF91CF91C3
:100880001F910F91FF90EF90BF90AF909F908F902E
:100890007F906F905F904F90089560E08AE0DF91C5
:1008A000CF911F910F91FF90EF90BF90AF909F90CD
:1008B0008F907F906F905F904F900C94B103892B35
:1008C00009F4A9CF61E089E00E94B1039ACF1F9398
:1008D000CF93DF93182FEB0161E00E94B1032097C3
:1008E00039F460E0812FDF91CF911F910C94650363
:1008F000CF3FD10511F461E0F5CFE12FF0E0E35AED
:10090000FD4FE491E33031F140F4E130B1F0E230F9
:10091000E1F0C038D1057CF7E4CFE73029F1E830C9
:1009200059F1E430B1F780918000806280938000BB
:10093000D0938B00C0938A0004C084B5806884BDC6
:10094000C7BDDF91CF911F91089584B5806284BDAA
:10095000C8BDF7CF80918000806880938000D093DD
:100960008900C0938800EDCF8091B00080688093AB
:10097000B000C093B300E5CF8091B0008062809357
:10098000B000C093B400DDCF3FB7F8948091FB0373
:100990009091FC03A091FD03B091FE0326B5A89BA6
:1009A00005C02F3F19F00196A11DB11D3FBFBA2F01
:1009B000A92F982F8827BC01CD01620F711D811DC1
:1009C000911D42E0660F771F881F991F4A95D1F746
:1009D00008958F929F92AF92BF92CF92DF92EF9243
:1009E000FF924B015C010E94C4046B017C010E94D8
:1009F000C4046C197D098E099F09683E7340810506
:100A00009105A8F321E0821A9108A108B10888EEA7
:100A1000C80E83E0D81EE11CF11C81149104A104CE
:100A2000B10429F7FF90EF90DF90CF90BF90AF9087
:100A30009F908F9008952FB7F8946091F70370916D
:100A4000F8038091F9039091FA032FBF0895DC0118
:100A5000ED91FC910190F081E02D0994EF92FF92CD
:100A60000F931F93CF93DF938C017B01D0E0C0E005
:100A7000F701EC0FFD1F6491662361F0D801ED9141
:100A8000FC910190F081E02DC8010995892B11F0AE
:100A90002196EECFCE01DF91CF911F910F91FF9064
:100AA000EF900895AF92BF92CF92DF92EF92FF92B4
:100AB0000F931F93CF93DF936C017B018B01040F86
:100AC000151FEB015E01AE18BF08C017D10759F022
:100AD0006991D601ED91FC910190F081E02DC60164
:100AE0000995892B79F7C501DF91CF911F910F915E
:100AF000FF90EF90DF90CF90BF90AF900895FC01F2
:100B0000538D448D252F30E0842F90E0821B930B72
:100B1000541710F0CF96089501970895FC01918D18
:100B2000828D981761F0A28DAE0FBF2FB11D5D961B
:100B30008C91928D9F5F9F73928F90E008958FEFBD
:100B40009FEF0895FC01918D828D981731F0828D71
:100B5000E80FF11D858D90E008958FEF9FEF0895C8
:100B6000FC01918D228D892F90E0805C9F4F821B2C
:100B700091098F739927089585E794E00E94B00545
:100B800021E0892B09F420E0822F089580E090E095
:100B9000892B29F00E94BC0581110C940000089556
:100BA000FC01A48DA80FB92FB11DA35ABF4F2C91E2
:100BB000848D90E001968F739927848FA689B789D9
:100BC0002C93A089B1898C91837080648C93938DD0
:100BD000848D981306C00288F389E02D80818F7D73
:100BE00080830895EF92FF920F931F93CF93DF932B
:100BF000EC0181E0888F9B8D8C8D98131AC0E88959
:100C0000F989808185FF15C09FB7F894EE89FF8927
:100C10006083E889F98980818370806480839FBFC5
:100C200081E090E0DF91CF911F910F91FF90EF90C5
:100C30000895F62E0B8D10E00F5F1F4F0F731127D5
:100C4000E02E8C8D8E110CC00FB607FCFACFE88910
:100C5000F989808185FFF5CFCE010E94D005F1CFC3
:100C6000EB8DEC0FFD2FF11DE35AFF4FF0829FB784
:100C7000F8940B8FEA89FB8980818062CFCFCF9374
:100C8000DF93EC01888D8823B9F0AA89BB89E889B4
:100C9000F9898C9185FD03C0808186FD0DC00FB65A
:100CA00007FCF7CF8C9185FFF2CF808185FFEDCFD8
:100CB000CE010E94D005E9CFDF91CF91089521E0C8
:100CC00001C0220F6A95EAF7DC011C962C931C9751
:100CD0001A965C934E931997ED91FC910484F585D7
:100CE000E02D60E00994DC01ED91FC910684F7852C
:100CF000E02D41E0099581E090E00895DC01ED915F
:100D0000FC910684F785E02D40E009940F931F9332
:100D1000CF93DF93CDB7DEB728970FB6F894DEBF39
:100D20000FBECDBF0091020110910301209104017B
:100D3000309105010D831E832F83388700910601B2
:100D400010910701209108013091090109831A834C
:100D50002B833C839091A305691710F06FEF690F07
:100D6000262F30E04091A4052C0F3D1FF9014031A2
:100D700099F4943089F46181680F60688CE995E09A
:100D800028960FB6F894DEBF0FBECDBFDF91CF918E
:100D90001F910F910C947E066581EECF0F931F93E8
:100DA000CF93DF93EC01423018F08C8188608C8304
:100DB0004F836887222329F0413019F48C818460A5
:100DC0008C8364E670E080E090E00E94E9046C812E
:100DD00064FD5CC0E881F9810684F785E02D42E07E
:100DE00063E0CE0109958BE496E40197F1F7E88181
:100DF000F9810684F785E02D42E063E0CE01099594
:100E000003E512E0C8010197F1F7E881F981068452
:100E1000F785E02D42E063E0CE010995C801019716
:100E2000F1F7E881F9810684F785E02D42E062E080
:100E3000CE010995C8010197F1F76C816062CE017E
:100E40000E947E068BEE90E00197F1F784E08D839F
:100E50006CE0CE010E947E0661E0CE010E947E061B
:100E60008BE39FE10197F1F782E08E8366E0CE018C
:100E70000E947E06E881F9810484F585E02D6FEFFC
:100E8000CE01DF91CF911F910F9109946062CE0145
:100E90000E947E068BE496E40197F1F76C81606214
:100EA000CE010E947E0603E512E0C8010197F1F72A
:100EB0006C816062CE010E947E06BCCF08950895C9
:100EC00008958F929F92AF92BF92EF920F93CF931C
:100ED000DF934A015B01E90101500E9D002D1124B1
:100EE00060E070E0CB01A50194010E945C2924E040
:100EF000029FF0011124EC0FFD1F259135914591C2
:100F000054910E946F2A002311F00E19ECCFDF914B
:100F1000CF910F91EF90BF90AF909F908F900895D9
:100F2000CF92DF92EF92FF92CF93DF93EC016A01B1
:100F30007B01E881F9810680F781E02D0995A70101
:100F400096010E94F628181684F0E881F981048041
:100F5000F581E02DCE0109959B01AC01C1E0C701EF
:100F6000B6010E94F62818160CF4C0E08C2FDF9111
:100F7000CF91FF90EF90DF90CF900895CF92DF92C6
:100F8000EF92FF92CF93DF93EC016A017B01E8813E
:100F9000F9810190F081E02D0995A70196010E9449
:100FA000F628181684F0E881F9810280F381E02D9B
:100FB000CE0109959B01AC01C1E0C701B6010E94B9
:100FC000F62818160CF4C0E08C2FDF91CF91FF901B
:100FD000EF90DF90CF9008958F929F92AF92BF9243
:100FE000CF92DF92EF92FF920F931F93CF93DF93F5
:100FF0006C014A015B010E94BE07882309F449C0C5
:1010000025E5E22E21E0F22ED0E0C0E010E000E085
:10101000F7012591359145915491C501B4010E9484
:10102000E42B87FD0DC0F7013C9625913591459144
:101030005491C501B4010E94F62818160CF0E8017D
:101040000F5F1F4F84E0E80EF11C0330110501F71C
:101050009E01220F331F220F331F23523F4FD60111
:10106000ED91FC910484F585E02D93E0E92E0AE0F2
:10107000B501A401C6010995DF91CF911F910F9190
:10108000FF90EF90DF90CF90BF90AF909F908F90A8
:10109000089560E070E08AE796E4EECF8F929F9229
:1010A000AF92BF92CF92DF92EF92FF920F931F9376
:1010B000CF93DF93EC016A017B01590120E030E01E
:1010C000A901C501B8010E94F6288823E1F0B50105
:1010D000A801CE010E94900720E030E04AE756E4E4
:1010E000882359F0E881F9810284F385E02DB50168
:1010F000A801CE0109959B01AC01C701B6010E9470
:101100006F2A6B017C01B701A601CE010E94BE07C8
:101110008823A9F0E881F9810084F185E02DB701E9
:10112000A601CE01DF91CF911F910F91FF90EF901B
:10113000DF90CF90BF90AF909F908F90099460E028
:1011400070E08AE796E4DF91CF911F910F91FF90B5
:10115000EF90DF90CF90BF90AF909F908F900895C9
:10116000E1EDF1E065917591859194910895EDED32
:10117000F1E065917591859194910895E9E6F1E02A
:1011800065917591859194910895E5E5F1E06591FA
:1011900075918591949108954F925F926F927F928D
:1011A0008F929F92AF92BF92CF92DF92EF92FF9277
:1011B000CF93DF93EC016A017B0188858823B1F02E
:1011C000CC82DD82EE82FF821886C701B601DF91F4
:1011D000CF91FF90EF90DF90CF90BF90AF909F9016
:1011E0008F907F906F905F904F9008958880998046
:1011F000AA80BB8064E670E080E090E0681979091D
:101200008A099B090E94FD282B013C01C701B601F8
:101210000E94FD289B01AC01C301B2010E945C2920
:101220002AE037ED43E25CE30E945C296B017C011C
:101230006C817D818E819F810E94FD282B013C0164
:10124000C501B4010E94FD289B01AC01C301B2019C
:101250000E945C292AE037ED43E25CE30E945C29AE
:10126000A70196010E946F2A6B017C0120E030E00B
:10127000A9010E94E42B20E030E040E05FE387FD1D
:101280000DC0C701B6010E946F2A0E94872B6B0117
:101290007C01CC82DD82EE82FF8297CFC701B6014E
:1012A0000E946E2AF2CF20917502260F3327331F3A
:1012B00021323105ECF420914704FC0190E080E0FC
:1012C000243069F082E00895A09175022191AC016B
:1012D0004B5A5D4FA40FB52FB11D2C930196861765
:1012E00098F380917502680F6093750280E008950D
:1012F00081E008951092470481E0809346041092A3
:10130000410461E082E10E94650361E083E10E94A3
:101310006503E9EBF0E080818E7F808380818D7FA3
:10132000808388E48093B80085E48093BC000895AE
:10133000109274041092730410927204109271044B
:101340000E947A098BEC92E09093700480936F0472
:101350008CEC92E090936E0480936D040895CF938B
:10136000DF9391E0909354028823B9F0C091B800C4
:10137000D091BA008091BC008A7B8093BC0060E071
:1013800082E10E94650360E083E10E9465030E94A0
:101390007A09D093BA00C093B800DF91CF91089535
:1013A000CF92DF92EF92FF920F931F93CF93DF9331
:1013B000D82FC62F613208F098C00E94C4046B0178
:1013C0007C018091470481116BC081E080934704C8
:1013D000809346049FEF90934504109244049C0F21
:1013E000909343048093420480914204DD0FD82BF4
:1013F000D093420480914104813009F078C010926A
:1014000041040E94C4046B017C01809142048093DA
:10141000BB008091490490914A04A0914B04B09183
:101420004C04892B8A2B8B2BA1F00E94C4040091C1
:10143000490410914A0420914B0430914C046C19DA
:101440007D098E099F09061717072807390708F431
:1014500048C08091BC0083FDD8CF85EC8093BC0050
:101460000E94C4046B017C0180914704813009F41F
:1014700040C0809144048C1710F4C0914404E1E210
:10148000F4E0ADE4B4E080E08C1355C08C2FDF9124
:10149000CF911F910F91FF90EF90DF90CF90089523
:1014A0008091490490914A04A0914B04B0914C045E
:1014B000892B8A2B8B2B09F484CF0E94C4040091C2
:1014C000490410914A0420914B0430914C046C194A
:1014D0007D098E099F09061717072807390708F0A5
:1014E00070CF809148040E94AF09C0E0CFCF85EE55
:1014F000B5CF8091490490914A04A0914B04B091DA
:101500004C04892B8A2B8B2B09F4AECF0E94C40488
:101510000091490410914A0420914B0430914C04ED
:101520006C197D098E099F090617170728073907C7
:1015300008F09ACFD6CF91919D938F5FA5CFCF9290
:10154000DF92EF92FF920F931F93CF93DF93D0918F
:10155000710481E0D13208F09CC0C09120040E9447
:10156000C4046B017C018091470481116CC082E04E
:101570008093470481E0809346048FEF8093450475
:1015800010924404D0934304A0E0B4E0E1E2F4E01C
:1015900080E0D8138DC01092420480914204CC0F99
:1015A000C82BC093420480914104813009F084C06B
:1015B000109241040E94C4046B017C01809142049A
:1015C0008093BB008091490490914A04A0914B0400
:1015D000B0914C04892B8A2B8B2BA1F00E94C40460
:1015E0000091490410914A0420914B0430914C041D
:1015F0006C197D098E099F090617170728073907F7
:1016000008F442C08091BC0083FDD8CF85EC809364
:10161000BC000E94C4046B017C01809147048230AD
:1016200009F44CC0809145048F3F09F469C0809152
:101630004504803209F466C080914504803309F482
:1016400063C084E026C08091490490914A04A0912F
:101650004B04B0914C04892B8A2B8B2B09F483CF3C
:101660000E94C4040091490410914A0420914B0443
:1016700030914C046C197D098E099F0906171707D4
:101680002807390708F06FCF809148040E94AF09FE
:1016900085E010927204109271041092FF03DF91A2
:1016A000CF911F910F91FF90EF90DF90CF90089511
:1016B0009D9191938F5F6DCF85EEA9CF8091490465
:1016C00090914A04A0914B04B0914C04892B8A2B31
:1016D0008B2B09F4A2CF0E94C404009149041091FD
:1016E0004A0420914B0430914C046C197D098E09F9
:1016F0009F09061717072807390708F08ECFC4CFB0
:1017000080E0C7CF82E0C5CF83E0C3CF0895E091EA
:10171000740480917304E81730F4F0E0E35BFB4F4E
:10172000808190E008958FEF9FEF0895CF92DF9230
:10173000EF92FF920F931F93CF93DF937C01CB0126
:101740008A012091FF03222389F0EB016B01C40E73
:10175000D51ECC15DD0569F06991D701ED91FC919D
:101760000190F081E02DC7010995F3CF642F0E940D
:101770005309C801DF91CF911F910F91FF90EF9016
:10178000DF90CF900895CF93DF931F92CDB7DEB750
:1017900069832091FF032223F9F020917104203204
:1017A00058F021E030E0FC013383228390E080E0B8
:1017B0000F90DF91CF91089580917204E82FF0E0AF
:1017C000E050FC4F998190838F5F809372048093E7
:1017D000710481E090E0ECCF61E0CE0101960E94BF
:1017E0005309F7CFFC0123812223F1F0262F6181D9
:1017F000609562236083828191E09093FF038093E0
:101800002004109272041092710480E995E00E9405
:10181000C30B0E949F0A282F30E081E090E0232B29
:1018200011F090E080E0089530E020E0F6CFEF92F4
:10183000FF920F931F93CF938C01FC0184E0C0E0D3
:10184000262F30E060FF02C09589C92BB90175953C
:101850006795815031968111F3CF413011F4F80131
:101860004489F8016585C62BC42B7801FEE0EF0E94
:10187000F11CF80162896C2BC7010E94F20BF80180
:10188000628960956C23C701CF911F910F91FF90E2
:10189000EF900C94F20B0F931F93CF93DF93062FCF
:1018A0000F70423041F440E0602FDF91CF911F91E3
:1018B0000F910C94170C142FEC0170E084E07595D7
:1018C00067958A95E1F7CE010E94170C412F602F92
:1018D000CE01EBCFFC0184858823A1F021853285E0
:1018E0002115310521F4611107C0158606C021308C
:1018F0003105D9F76111F9CF85876585CF010E963E
:101900000C94F20B0895EF92FF920F931F93CF93D5
:10191000DF93EC01062FF42EE22E8B85888B0E943C
:101920009809888911E01093FF0380932004109296
:101930007204109271040E949F0A81111AC0198BBF
:101940000E94E0028E878989882339F01F861C82D5
:1019500060E0CE010E960E94F20B2E2D4F2D602FCF
:10196000CE01DF91CF911F910F91FF90EF900C94DA
:10197000CE06198AE8CF90E080E00895CF92DF92FA
:10198000EF92FF92CF93DF93C091CC03D091CD0320
:1019900060919A0270919B0290E080E0CE31D10577
:1019A00024F08091E4039091E5030E94E203BE01DC
:1019B000DD0F880B990B0E94FD2823E333E343E2FC
:1019C00050E40E945C296B017C0120E030E0A90119
:1019D0000E94E42B20E030E040E05FE387FD10C090
:1019E000C701B6010E946F2A0E94872B70E083E036
:1019F000DF91CF91FF90EF90DF90CF900C94670430
:101A0000C701B6010E946E2AEFCF60919A027091D1
:101A10009B028091CC039091CD034E9724F490E0EB
:101A200080E00C94E2038091E4039091E503F9CF08
:101A30008091CC039091CD034E974CF08091E403BC
:101A400060919A0270919B0290E00C94E20380E016
:101A5000F7CFCF92DF92EF92FF92CF93C82F82EF12
:101A60008C0FCE3008F48C2F8770806480937C00BC
:101A700080917A00806480937A0080917A0086FD5C
:101A8000FCCF6091780070917900072E000C880BD4
:101A9000990B0E94FD286B017C01C11126C020E03A
:101AA00030E040E85AE3C701B6010E945C292AE011
:101AB00037ED43E251E40E945C2920E030E048EC3D
:101AC00052E40E945C2920E030E0A9010E946F2AC4
:101AD0006B017C0120E030E0A9010E94F628811111
:101AE00006C0C12CD12C760102C0C130C1F22FE654
:101AF00032E143E85AE3C701B6010E946F2A20E0B1
:101B000030E048EC52E40E945C290E94872B2FEFC2
:101B100033E040E050E00E94942C57FF03C020E0E7
:101B200030E0A901CA01B901CF91FF90EF90DF9099
:101B3000CF9008955F926F927F928F929F92AF9213
:101B4000BF92CF92DF92EF92FF920F931F93CF93AA
:101B5000DF938C013B016A01892B41F0882799278B
:101B6000801B910B8417950708F46C01D0E0C0E04E
:101B70005524539465E070E080E090E00E94E90411
:101B80008091FC065092FF0380932004109272040F
:101B900010927104612F80E995E00E94C30B602FC1
:101BA00080E995E00E94C30B0E949F0ACE018096B7
:101BB0007601EC1AFD0A8C159D0518F480E2E82EDA
:101BC000F12C6E2D613208F060E28091FC060E94DB
:101BD000D00910927404809373048E151F04C1F40D
:101BE00043018C0E9D1E5401C501881999098E155B
:101BF0009F0530F40E94E002F50181935F01F4CF6C
:101C0000CE0DDF1D0E0D1F1DCC15DD0508F4B2CF66
:101C1000CE01DF91CF911F910F91FF90EF90DF9058
:101C2000CF90BF90AF909F908F907F906F905F907C
:101C30000895CF93DF938091420390914303181648
:101C40001906ECF5019720E931E0829FE001839FBE
:101C5000D00D929FD00D112441E050E063E373E07A
:101C6000CE018C5F9B4F0E949A0D48E250E064E9E0
:101C700073E0CE018B5F9B4F0E949A0D40E550E0D0
:101C800064E473E0CE01835D9B4F0E949A0DCE0108
:101C900083589B4F909339038093380344E050E07E
:101CA0006AE373E00E949A0D44E050E064E373E05D
:101CB000CE018F519B4FDF91CF910C949A0DDF9104
:101CC000CF9108950E94B92CFB0101900020E9F703
:101CD0003197AF01461B570BDC01ED91FC9102805F
:101CE000F381E02D09948F929F92AF92BF92EF9271
:101CF000FF920F931F93CF93DF93CDB7DEB7A197DA
:101D00000FB6F894DEBF0FBECDBF7C01FA01CB0148
:101D100019A2223008F42AE08E010F5D1F4F822E97
:101D2000912CB12CA12CBF01A50194010E94722C11
:101D3000F901CA016A300CF5605DD8016E938D011E
:101D4000232B242B252B79F790E080E0109721F0AE
:101D5000BD01C7010E94640EA1960FB6F894DEBFC4
:101D60000FBECDBFDF91CF911F910F91FF90EF90EC
:101D7000BF90AF909F908F900895695CDECFCF9217
:101D8000DF92EF92FF92CF93DF936C01990FEE08F1
:101D9000FF08F7FE1BC06DE285E794E00E9427056F
:101DA000EC0144275527BA014C195D096E097F09DA
:101DB0002AE085E794E00E94730E8C0F9D1FDF914F
:101DC000CF91FF90EF90DF90CF9008952AE0B70178
:101DD000A60185E794E0DF91CF91FF90EF90DF902F
:101DE000CF900C94730E2F923F924F925F926F920E
:101DF0007F928F929F92AF92BF92CF92DF92EF929B
:101E0000FF921F93CF93DF93EC016A017B01722E47
:101E1000AB019601CB01B6010E945F2C6AEA71E02A
:101E2000811126C046015701E894B7F82FEF3FEF24
:101E30004FE75FE7C501B4010E945F2C81110CC020
:101E40002FEF3FEF4FE75FE7C501B4010E94F6288F
:101E50006EEA71E0181664F02FEF3FEF4FE75FE492
:101E6000C701B6010E94E42B1816B4F462EB71E0CE
:101E7000CE01DF91CF911F91FF90EF90DF90CF9037
:101E8000BF90AF909F908F907F906F905F904F909A
:101E90003F902F900C94640E2FEF3FEF4FE75FECD5
:101EA000C701B6010E94F62887FDE0CF20E030E0B0
:101EB000A901C701B6010E94F628312C212C87FF09
:101EC00009C06DE2CE010E9427051C01F7FAF094CB
:101ED000F7F8F09410E060E070E080E09FE37116A6
:101EE00041F020E030E040E251E40E94DB2A1F5F35
:101EF000F6CFA70196010E946F2A2B013C010E9498
:101F00008E2B4B015C012AE0BC01A401CE010E9492
:101F1000730E7C01E20CF31C1123C1F1C501B40165
:101F20000E94FB289B01AC01C301B2010E946E2AF2
:101F30004B015C016EE2CE010E942705E80EF91EFE
:101F4000115020F120E030E040E251E4C501B4013D
:101F50000E945C292B013C010E948E2B4B01B12C6D
:101F6000A12C2AE0B501A401CE010E94730EE80E57
:101F7000F91EC501B4010E94FB289B01AC01C301FD
:101F8000B2010E946E2A4B015C01DACFC701DF91DA
:101F9000CF911F91FF90EF90DF90CF90BF90AF90C7
:101FA0009F908F907F906F905F904F903F902F9079
:101FB00008954F925F926F927F928F929F92AF920D
:101FC000BF92CF92DF92EF92FF920F93CF93DF9366
:101FD000CDB7DEB728970FB6F894DEBF0FBECDBFE2
:101FE0009A8389834A015B010E949007882309F440
:101FF0008FC0E1EDF1E02591359145915491A98192
:10200000BA81ED91FC91C484D584C501B4010E94CC
:10201000E42B87FD2DC0E9EDF1E025913591459147
:102020005491C501B4010E94F62818160CF192E0F3
:10203000E92E0BE029E731E0B501A40189819A81FD
:10204000F601099528960FB6F894DEBF0FBECDBFF6
:10205000DF91CF910F91FF90EF90DF90CF90BF90E5
:10206000AF909F908F907F906F905F904F9008956A
:1020700082E0E82E0BE02DE731E0B501A401898173
:102080009A81F601099569837A838B839C83EDE6B7
:10209000F1E085919591A591B4918D839E83AF8355
:1020A000B887E1E7F1E0C590D590E590F49085E739
:1020B00091E0FC012591359145915491FC014590A9
:1020C000559065907490C501B4010E946E2AA701D5
:1020D00096010E945C296B017C01A3019201C5015C
:1020E000B4010E946E2A9B01AC01C701B6010E9497
:1020F0005C290E94552B2D813E814F8158850E947D
:102100005C2929813A814B815C810E946F2A9ACF98
:1021100060E070E08AE796E495CFEF92FF920F932C
:102120001F93CF93DF938C017C0182E0E80EF11CBA
:1021300085E794E00E94B00518161906CCF585E7EE
:1021400094E00E948E05E70109900020E9F72197AD
:10215000CE19DF098A30E9F4E801AB9649E050E096
:10216000B701CE010E94DD2CD801D4961C92D497E1
:10217000ED91FC910280F381E02DC8010995F801F1
:102180001282CE01DF91CF911F910F91FF90EF90BE
:102190000895C83209F38D3059F2082E000C990BBE
:1021A0000E94BE2CC00FD12FD11D8A831B82C0CFAD
:1021B000D0E0C0E0E6CF9F92AF92BF92CF92DF9285
:1021C000EF92FF920F931F93CF93DF936C0129E55A
:1021D000C20ED11CF60120813181232B09F458C095
:1021E000EC017C01F5E3EF0EF11C1DAA1BAEFC0116
:1021F000EF5BFF4F108236961082369610828C016C
:10220000085A1F4FF80110825701FEE1AF0EB11CB2
:10221000B50102960E945127BC0186E0982EF80174
:10222000908161157105F9F09530F8F445E050E0C2
:102230009701999D200D311D1124C9010E94DD2CAB
:10224000F8018081FE01989EE00DF11D112412AE6F
:10225000B50190E080E00E945127BC01F801908117
:102260009F5F9083DCCF992399F0F601C081D181E3
:10227000209771F0E881F9810190F081E02DB7019C
:10228000CE010995811104C00884D985C02DF0CFF5
:10229000DF91CF911F910F91FF90EF90DF90CF9042
:1022A000BF90AF909F90089502960E94C62C21E0A7
:1022B000892B09F020E0822F089502960E94C62CF7
:1022C000892BB1F41092DC031092DD031092DE032F
:1022D0001092DF0365ED70E085E794E00E942E0523
:1022E00066EB71E085E794E00E94640E81E008955A
:1022F00080E00895CF93DF93EB0102960E94C62CF5
:10230000892BD1F4269661ED71E0CE010E94C62C96
:10231000892B31F41092000181E0DF91CF91089573
:1023200069EB71E0CE010E94C62C892B21F481E07B
:1023300080930001F2CFF1CF80E0EFCFEF92FF92D8
:102340000F931F93CF9302960E94C62C892B09F0FE
:10235000A5C06091CE037091CF038091D00390917E
:10236000D10320910001222361F020E030E040E021
:1023700052E40E946E2A26E636E646EE5FE30E94AD
:10238000DB2A21E0AB01BC0185E794E00E94F30E5B
:1023900008ED13E08CEDE82E83E0F82EF801C191F2
:1023A0008F01CC2341F163ED70E085E794E00E945A
:1023B0002E05C15084E0C89FF0011124EA51FC4F62
:1023C000608171818281938120910001222361F0DB
:1023D00020E030E040E052E40E946E2A26E636E635
:1023E00046EE5FE30E94DB2A21E0AB01BC0185E7FA
:1023F00094E00E94F30EE016F10681F661ED70E0C4
:1024000085E794E00E942E058091CC039091CD0346
:102410004E97A4F590E080E00E94BF0E6FEC70E054
:1024200085E794E00E942E058091CC039091CD0326
:102430000E94BF0E8091FA06882329F16DEC70E0AE
:1024400085E794E00E942E054091B4065091B506B0
:102450006091B6067091B70622E085E794E00E948D
:10246000F30E66EB71E085E794E00E94640E81E074
:10247000CF911F910F91FF90EF9008958091E40309
:102480009091E503C9CF6BEC70E085E794E00E9482
:102490002E0590E080E00E94BF0EE3CF80E0E8CF01
:1024A00085ED8093BC008091490490914A04A091ED
:1024B0004B04B0914C040796A11DB11D23E0B695C5
:1024C000A795979587952A95D1F72091BC0024FD73
:1024D00003C01092470408954091490450914A0462
:1024E00060914B0470914C04452B462B472B69F3AC
:1024F0000097A105B10541F02AE22A95F1F700C045
:102500000197A109B109E1CF809148040C94AF096A
:10251000CF92DF92EF92FF920F931F93CF93DF93AF
:102520008B0102960E94C62C892B91F5E801269614
:1025300088EDE82E83E0F82E025E1F4F99E0C92E49
:10254000DD24D394FE0101900020E9F73197EC17C8
:10255000B1F0CE010E943327D701EC91EE2379F040
:10256000E150CE9EF0011124ED59F94F092E000CD7
:10257000AA0BBB0B80839183A283B383D08626965C
:102580008FEFE81AF80AC017D107E1F681E001C021
:1025900080E0DF91CF911F910F91FF90EF90DF903E
:1025A000CF9008950F931F93CF93DF938C01EB018E
:1025B00002960E94C62C892B79F4CE010696FC0166
:1025C00001900020E9F73197E81721F00E943327A6
:1025D000F801828781E001C080E0DF91CF911F91F7
:1025E0000F910895CF93DF93EB0102960E94C62CC2
:1025F000892B09F040C026966BEB71E0CE010E945A
:10260000C62C892BE1F48091CC039091CD030196E7
:102610008536910514F084E690E09093CD03809385
:10262000CC038091CC039091CD0397FF04C010920E
:10263000CD031092CC030E94BE0C81E01DC06EEB56
:1026400071E0CE010E94C62C892B51F48091CC03FD
:102650009091CD0301979093CD038093CC03E5CF68
:10266000FE0101900020E9F73197EC1731F3CE011C
:102670000E943327CDCF80E0DF91CF910895CF9393
:10268000DF93EB0102960E94C62C892B09F040C013
:1026900026966BEB71E0CE010E94C62C892BE1F4EB
:1026A00080919A0290919B0201968536910514F0D3
:1026B00084E690E090939B0280939A0280919A0224
:1026C00090919B0297FF04C010929B0210929A0275
:1026D0000E94050D81E01DC06EEB71E0CE010E94ED
:1026E000C62C892B51F480919A0290919B020197FC
:1026F00090939B0280939A02E5CFFE010190002007
:10270000E9F73197EC1731F3CE010E943327CDCF93
:1027100080E0DF91CF910895CF93DF93EB01029694
:102720000E94C62C892B09F040C026966BEB71E005
:10273000CE010E94C62C892BE1F48091E403909194
:10274000E50301968536910514F084E690E09093B8
:10275000E5038093E4038091E4039091E50397FF00
:1027600004C01092E5031092E4030E94180D81E06A
:102770001DC06EEB71E0CE010E94C62C892B51F476
:102780008091E4039091E50301979093E503809392
:10279000E403E5CFFE0101900020E9F73197EC1743
:1027A00031F3CE010E943327CDCF80E0DF91CF916E
:1027B0000895CF92DF92EF92FF920F931F93CF93E2
:1027C000DF9300D0CDB7DEB78B0102960E94C62CF6
:1027D000892BB9F5D8011696FD0101900020E9F783
:1027E0003197EA1BFB0BE43001F57D0188EDC82E23
:1027F00083E0D82E8F011127C601885D9340801792
:1028000091079CF4F70181917F0189831A82CE019F
:1028100001960E943327F601853028F48083FFEF6C
:10282000CF1ADF0AE9CF1082FACF81E00F900F9024
:10283000DF91CF911F910F91FF90EF90DF90CF909C
:10284000089580E0F3CF0F931F93CF93DF93EB01B5
:1028500002960E94C62C892B41F5CE010696DC011A
:102860000D900020E9F711978E01045F1F4FF801CA
:1028700001900020E9F73197E01BF10BA81799F0C0
:10288000EE2389F02E81243461F401960E943327CF
:10289000C82FC8010E943327BC018C2F0E946704F7
:1028A00002C0213499F781E001C080E0DF91CF912F
:1028B0001F910F910895EF92FF920F931F93CF9363
:1028C000DF93EB0102960E94C62C892B09F07BC096
:1028D000CE010696DC010D900020E9F711978E01DC
:1028E000045F1F4FF80101900020E9F73197E01BCA
:1028F000F10BA81302C081E067C0EE23E1F32E8143
:10290000213409F045C0CE0107960E9433277C018F
:10291000992782309105F1F09CF40097C9F0CFE03F
:10292000019749F763EC71E0C8010E94C62C892B1E
:10293000B9F461E08C2F0E94B10361E08C2F25C0B7
:102940008430910559F044F0C3E1059759F3D3CF92
:10295000CEE0E8CFC0E1E6CFC1E1E4CFC2E1E2CF13
:1029600068EC71E0C8010E94C62C892B21F660E05A
:102970008C2F0E94B10360E08C2F0E94650361E000
:102980008C2F0E94B10360E08E2D0E946503B3CFAF
:10299000243411F4CE0107960E943327C82F61E03A
:1029A0000E94B10363EC71E0C8010E94C62C892B20
:1029B00021F268EC71E0C8010E94C62C892B09F055
:1029C0009ACF60E0BBCF80E0DF91CF911F910F9154
:1029D000FF90EF9008954F925F926F927F928F9247
:1029E0009F92AF92BF92CF92DF92EF92FF920F939E
:1029F0001F93CF93DF9300D000D000D0CDB7DEB7C8
:102A00008B0102960E94C62C892B09F070C1C80167
:102A100006969E838D836CEC71E00E94C62C892BF8
:102A200041F51092B8061092B9061092BA061092AB
:102A3000BB068091FA06811102C00E94FA0281E071
:102A40008093FA0626960FB6F894DEBF0FBECDBF70
:102A5000DF91CF911F910F91FF90EF90DF90CF907A
:102A6000BF90AF909F908F907F906F905F904F90AE
:102A700008956FEC71E08D819E810E94C62C892B98
:102A800071F41092B8061092B9061092BA0610921C
:102A9000BB061092FA060E94180D81E0D3CF63EDB9
:102AA00071E08D819E810E94C62C892B49F4109281
:102AB000DC031092DD031092DE031092DF03EDCFF2
:102AC00068ED71E08D819E810E94C62C892B49F4AE
:102AD0001092DC031092DD031092DE031092DF03EC
:102AE000A8CF6BED71E08D819E810E94C62C892B51
:102AF00089F41092FA061092E5031092E4030E9402
:102B0000180D84E690E09093CD038093CC030E944F
:102B1000BE0CC3CF6EED71E08D819E810E94C62CEC
:102B2000892B59F4C8010C960E94332790934303D4
:102B3000809342030E94190EB0CFF801868184353C
:102B400061F5C8010C960E942F274B015C01C8015A
:102B500042960E942F272B013C01C80148960E94F3
:102B60002F2769837A838B839C8360EE71E08D814C
:102B70009E810E94C62CD12CC12C892B19F0CC240B
:102B8000C394D12CE980FA800B811C81A3019201AE
:102B9000C501B4010E94640180CF66EE71E08D81B1
:102BA0009E810E94C62C892B69F4C8010C960E9454
:102BB0002F2760933E0370933F03809340039093CD
:102BC00041036BCF69EE71E08D819E810E94C62C1E
:102BD000892B09F057C0C8010C960E942F270E942C
:102BE0008E2B161617060CF058CF4B01770FAA083C
:102BF000BB08C501B4010E94FD282B013C01609176
:102C0000EE067091EF068091F0069091F1060E9419
:102C1000FB289B01AC01C301B2010E94DB2A2B01FE
:102C20003C01AC019B016091D0067091D10680916E
:102C3000D2069091D3060E945C296093D0067093CF
:102C4000D1068093D2069093D306A301920160919E
:102C5000D4067091D5068091D6069091D7060E9431
:102C6000DB2A6093D4067093D5068093D6069093A2
:102C7000D7068092EE069092EF06A092F006B092F0
:102C8000F1060BCF6CEE71E08D819E810E94C62C07
:102C9000892B39F4C8010C960E94332780930101D7
:102CA000FCCE61EF71E08D819E810E94C62C892B44
:102CB000E9F4C8010C960E9433278983C801429623
:102CC0000E943327682F70E090E080E00E94FB288C
:102CD0004B015C01F9816F2F70E090E080E00E9471
:102CE000FB28A50194010E943F02D7CEABCE80E025
:102CF000A9CE1F920F920FB60F9211242F933F93DC
:102D00008F939F93AF93BF938091F7039091F803B4
:102D1000A091F903B091FA033091F60323E0230F59
:102D20002D3758F50196A11DB11D2093F603809310
:102D3000F7039093F803A093F903B093FA038091FB
:102D4000FB039091FC03A091FD03B091FE0301965B
:102D5000A11DB11D8093FB039093FC03A093FD0381
:102D6000B093FE03BF91AF919F918F913F912F91AF
:102D70000F900FBE0F901F90189526E8230F029614
:102D8000A11DB11DD2CF1F920F920FB60F92112429
:102D90002F933F934F935F936F937F938F939F9363
:102DA000AF93BF93EF93FF9385E794E00E94D00524
:102DB000FF91EF91BF91AF919F918F917F916F9113
:102DC0005F914F913F912F910F900FBE0F901F90E9
:102DD00018951F920F920FB60F9211242F938F9375
:102DE0009F93EF93FF93E0918504F0918604808197
:102DF000E0918B04F0918C0482FD1BC09081809146
:102E00008E048F5F8F7320918F04821741F0E091C1
:102E10008E04F0E0EB58FB4F958F80938E04FF916A
:102E2000EF919F918F912F910F900FBE0F901F9058
:102E300018958081F4CF1F920F920FB60F92112434
:102E40002F933F934F935F936F937F938F939F93B2
:102E5000AF93BF93EF93FF938091B900887F803643
:102E600009F44AC0F0F5883209F4A7C018F580319A
:102E700009F49BC0B8F4882309F4F9C0883009F438
:102E800094C0FF91EF91BF91AF919F918F917F91EE
:102E90006F915F914F913F912F910F900FBE0F90C7
:102EA0001F901895883109F488C0803251F78093BB
:102EB000450414C0803409F49DC040F48033B9F354
:102EC0008833F9F68093450485ECB0C0803509F469
:102ED00085C0883509F496C0883499F60E9450124E
:102EE000D0CF883909F48CC038F5883729F050F4F0
:102EF000883611F0803729F683E0809347041092DA
:102F0000970257C0883809F47BC0803919F080389F
:102F100009F0B7CF80919702803208F071C0E0913C
:102F2000970281E08E0F809397028091BB00F0E0C2
:102F3000E958FD4F80833DC0803B39F0E0F4803A92
:102F400009F479C0883A09F09CCF84E08093470463
:102F50001092760210927502E0916F04F091700465
:102F600009958091750281110FC081E080937502EF
:102F70001092550209C0803C09F4A6CF883C09F4A0
:102F8000A3CF883B09F07DCFE091760281E08E0FE0
:102F900080937602F0E0EB5AFD4F80818093BB0076
:102FA000909176028091750229C0809142048093AD
:102FB000BB0085EC8093BC0064CF90914404809169
:102FC0004304981758F5E091440481E08E0F8093F4
:102FD0004404F0E0EF5DFB4F8081E9CFE0914404D1
:102FE00081E08E0F809344048091BB00F0E0EF5DA0
:102FF000FB4F808390914404809143049817C8F25A
:1030000085E8D8CFE091440481E08E0F809344049A
:103010008091BB00F0E0EF5DFB4F80838091460420
:1030200081115CCF81E08093410484EA8093BC00ED
:103030001092470426CF85EC8093BC001092470481
:1030400080919702803230F4E0919702F0E0E958E5
:10305000FD4F10826091970270E0E0916D04F09155
:103060006E0487E792E00995109297020ACF1092BA
:10307000450434CFCF93DF93EC012EE031E0FC0127
:1030800021933193CF0145E050E00E94DD2C1F8257
:10309000DF91CF910895CF92DF92EF92FF920F933D
:1030A0001F93CF93109278041092770488EE93E0E8
:1030B000A0E0B0E08093790490937A04A0937B041D
:1030C000B0937C0424E131E03093760420937504BE
:1030D00025EC30E0309382042093810424EC30E02E
:1030E000309384042093830420EC30E030938604F2
:1030F0002093850421EC30E03093880420938704EA
:1031000022EC30E030938A042093890426EC30E0EE
:1031100030938C0420938B0410928E0410928F04B1
:1031200010929004109291041092930510929205BF
:103130008093940590939505A0939605B093970579
:1031400086E291E0909391058093900567EF71E09E
:1031500086E895E00E943A188AE791E09093870507
:10316000809386056CEF71E08CE795E00E943A1839
:1031700084E791E090937D0580937C0563E072E0A5
:1031800082E795E00E943A188EE691E090937305ED
:10319000809372056CEE71E088E695E00E943A1823
:1031A00088E691E090936905809368056AE072E093
:1031B0008EE595E00E943A1882E691E090935F05D3
:1031C00080935E056EE072E084E595E00E943A1817
:1031D0008CE591E0909355058093540562E172E08F
:1031E0008AE495E00E943A1886E591E090934B05B9
:1031F00080934A0566E172E08AE395E00E943A18FE
:1032000080E591E090933B0580933A056CE172E094
:1032100080E395E00E943A188AE491E090933105AA
:103220008093300562E272E086E295E00E943A18EF
:1032300084E491E0909327058093260566E272E08E
:103240008CE195E00E943A188EE391E090931D0581
:1032500080931C056CE272E082E195E00E943A18CE
:1032600088E391E0909313058093120580E58093A5
:10327000FC060E94980988EB96E09093DF06809305
:10328000DE068CEB96E09093DD068093DC0684EB03
:1032900096E09093E1068093E0061092FA06109271
:1032A000F2061092F3061092F4061092F50680E0F2
:1032B00090E0AFE7B3E48093F6069093F706A0930F
:1032C000F806B093F90684E690E0A0E0B0E08093C1
:1032D000EE069093EF06A093F006B093F1061092DD
:1032E000D9061092D80681E090E09093DB06809397
:1032F000DA06C1E0C093FB0680E090E0A0E0B0E415
:103300008093C0069093C106A093C206B093C306F3
:1033100040E050E060EA70E44093C4065093C50674
:103320006093C6067093C706C12CD12C20E8E22E0C
:103330002FE3F22EC092C806D092C906E092CA06C8
:10334000F092CB068093CC069093CD06A093CE0648
:10335000B093CF0680E090E0A0E0BFE38093D0067A
:103360009093D106A093D206B093D30680E090E06C
:10337000A0E2B1E48093D4069093D506A093D6063C
:10338000B093D7060E941B050091EE061091EF0640
:103390002091F0063091F106601B710B820B930BAC
:1033A0006093E2067093E3068093E4069093E5064B
:1033B00088E68093AB06C092AC06D092AD06E09250
:1033C000AE06F092AF061092B0068FE88093AA0680
:1033D0008CE291E09093B2068093B10686E08093F0
:1033E000B30610928D0610928E0610928F061092E0
:1033F00090061092910610929206109293061092E7
:103400009406C093950688E480938C068091880684
:1034100080668093870682E291E090938A0680938B
:10342000890684E080938B06E3E6F6E087E896E081
:1034300021E0108211821282138214821582168278
:103440001782208739968E179F0799F7EFE3F6E0EA
:1034500081E01082118212821382148215821682F8
:1034600017828087399696E0E336F90791F7EBE10A
:10347000F6E021E0108211821282138214821582FA
:10348000168217822087399686E0EF33F80791F786
:1034900010921A061092190686EA91E09093BE05E2
:1034A0008093BD0584E0E1E3F2E0A0E1B6E00190A5
:1034B0000D928A95E1F71092140610921706109259
:1034C00016061092180684E991E09093BC0580934B
:1034D000BB059093BA058093B9059093B805809386
:1034E000B7059093B6058093B50510929F0510928D
:1034F0009E0580E891E090939D0580939C05109235
:10350000AC058FEF8093AB051092AA051092AD0524
:1035100087E28093A7051092A8051092A905109242
:10352000A6051092A50584E08093AE0582E0809305
:10353000AF052093B00580E18093B10580E28093D0
:10354000B20580E48093B30580E88093B40550E031
:1035500040E063E08CE995E0CF911F910F91FF90DF
:10356000EF90DF90CF900C945F06CF93DF93CDB7B1
:10357000DEB766970FB6F894DEBF0FBECDBF789466
:1035800084B5826084BD84B5816084BD85B5826068
:1035900085BD85B5816085BD80916E008160809319
:1035A0006E00109281008091810082608093810082
:1035B0008091810081608093810080918000816092
:1035C000809380008091B10084608093B1008091ED
:1035D000B00081608093B00080917A008460809315
:1035E0007A0080917A00826080937A0080917A00DC
:1035F000816080937A0080917A00806880937A005D
:103600001092C10064E670E080E090E00E94E9045E
:103610000E949809E0918504F091860482E08083FD
:10362000E0918104F09182041082E0918304F09192
:1036300084048FEC808310928D04E0918904F091D2
:103640008A0486E08083E0918704F0918804808179
:1036500080618083E0918704F09188048081886094
:103660008083E0918704F091880480818068808362
:10367000E0918704F091880480818F7D808386E4C7
:1036800090E0A0E0B0E080938D0690938E06A0932A
:103690008F06B093900681E08093950691E8909311
:1036A000880690918C068093FF03909320041092DB
:1036B00072041092710461E080E995E00E94C30BEE
:1036C00061E080E995E00E94C30B0E949F0A20E020
:1036D00044E064E18CE995E00E94830C6FEF8CE993
:1036E00095E00E946A0C60E080E00E94860666E336
:1036F00072E08CE995E00E94640E61E080E00E9437
:10370000860661EE71E08CE995E00E942E0510922C
:10371000AC061092AD061092AE061092AF06109253
:10372000B006109296061092970610929806109284
:10373000990646E450E06CE972E090E080E00E9477
:103740009A0D8634910509F0EAC243E050E06CE935
:1037500072E088E492E00E94CF2C892B09F0DFC24E
:103760002091D802298320E030E040E85FE36091B7
:10377000D4027091D5028091D6029091D7020E9416
:103780006E2A6093AC067093AD068093AE0690935C
:10379000AF0639813093B0068091DE029091DF024E
:1037A000A091E002B091E102809396069093970673
:1037B000A0939806B093990680E590E0A0E0B0E071
:1037C0008093630690936406A0936506B0936606A3
:1037D00041E040936B0680936C0690936D06A09336
:1037E0006E06B0936F0640937406809375069093AF
:1037F0007606A0937706B093780640937D06809373
:103800007E0690937F06A0938006B0938106409336
:10381000860645E550E060E070E040933F06509337
:1038200040066093410670934206E1E0E09347064C
:10383000409348065093490660934A0670934B069E
:10384000E093500680931B0690931C06A0931D06E0
:10385000B0931E06E09323068093240690932506DA
:10386000A0932606B0932706E0932C0610929B02A5
:1038700010929A021092E5031092E4031092CD0385
:103880001092CC0381E49FE090931A06809319066E
:10389000F89482EA809380008DE18093810080918A
:1038A000190690911A069093870080938600789469
:1038B00061E083E00E94B10381EA80939902F2E023
:1038C000F09398028093B000809198028093B100A9
:1038D00080E00E94290D60932B0370932C0380934A
:1038E0002D0390932E0381E00E94290D60932F03F6
:1038F00070933003809331039093320322E020933E
:10390000D80331E03093D9031092DA031092DB032D
:103910008BEB95E0909324038093230389EB95E050
:10392000909326038093250387EB95E090932803DB
:103930008093270385EB95E090932A0380932903D6
:1039400082E795E00E9454038CE795E00E945403BF
:1039500080E395E00E94540388E695E00E945403BA
:103960008AE495E00E9454038AE395E00E945403A0
:1039700084E595E00E9454038EE595E00E9454038F
:1039800086E895E00E94540386E295E00E94540385
:103990008CE195E00E94540382E195E00E9454037B
:1039A00010924405109245050E941B056093460540
:1039B00070934705809348059093490561E08DE039
:1039C0000E94B10364EF71E080E090E00E94E9049E
:1039D00061E08CE995E00E947E068BE39FE1019710
:1039E000F1F76091EE067091EF068091F0069091EC
:1039F000F1060E94FB289B01AC0160E070E88BEBB4
:103A000094E40E94DB2A6B017C01AC019B01609174
:103A1000D0067091D1068091D2069091D3060E9473
:103A20005C296093D0067093D1068093D206909360
:103A3000D306A70196016091D4067091D5068091B6
:103A4000D6069091D7060E94DB2A6093D406709325
:103A5000D5068093D6069093D7068CED95E0A0E02E
:103A6000B0E08093EE069093EF06A093F006B0933B
:103A7000F10620E030E048EC52E460E070E0CB0179
:103A80000E943F021092D9061092D80681E090E081
:103A90009093DB068093DA0641E04093FB069DECB1
:103AA000892E9CEC992E9CE4A92E90E4B92E80924C
:103AB000C0069092C106A092C206B092C3068FE8DB
:103AC00092ECA5EFBDE38093C4069093C506A09346
:103AD000C606B093C7068AE999E9A1E0B1E48093EC
:103AE000C8069093C906A093CA06B093CB0660910E
:103AF000EE067091EF068091F0069091F1060E941B
:103B0000FB2820E030E04AE754E40E94DB2A6B0106
:103B10007C018092CC069092CD06A092CE06B09207
:103B2000CF062FE832EC45EF5DE30E945C296093FD
:103B3000D0067093D1068093D2069093D306A70146
:103B400096016AE979E981E091E40E94DB2A6093B9
:103B5000D4067093D5068093D6069093D70610921C
:103B6000FA0610924303109242030E94190E51E08C
:103B70005093220383E090E0A0E0B0E08093DC0368
:103B80009093DD03A093DE03B093DF030E941B0537
:103B900068517C4F8F4F9F4F6093E0037093E10318
:103BA0008093E2039093E30322ED222E23E0322E52
:103BB0008DEB95E00E948D102091890630918A0648
:103BC0008091B1069091B2068217930708F4C9015B
:103BD000A8EDB3E0BC87AB87BA87A9879C0150E00A
:103BE00040E02D873E874F87588BA985BA858D91F8
:103BF000BA87A987882309F43DC377247A94780E7D
:103C0000E72DF0E0FA83E983EE0FFF1FED5DFC4F37
:103C1000208131813E832D838091AB0631E030934A
:103C2000FF03809320041092720410927104698142
:103C30007A8185E0660F771F8A95E1F760767727AE
:103C40008091AA06682B80E995E00E94C30B0E9430
:103C50009F0A80918C0641E04093FF0380932004EB
:103C6000109272041092710461E080E995E00E9464
:103C7000C30B6091870680E995E00E94C30B0E9408
:103C80009F0A0E941B05CD84DE84EF84F888C60E4F
:103C9000D71EE81EF91E0E941B056C157D058E05BA
:103CA0009F0508F06EC08DEB95E00E948D1010917D
:103CB000440500914505101708F044C00E941B05FB
:103CC0008090460590904705A0904805B090490522
:103CD000681979098A099B096D3371058105910578
:103CE000D0F2011B043008F003E010914505101BD1
:103CF000153688F6812F90E09093CD038093CC0306
:103D00000E94BE0C109345050E941B05609346055A
:103D1000709347058093480590934905BCCF109256
:103D2000AC061092AD061092AE061092AF0610923D
:103D3000B00610929606109297061092980610926E
:103D400099063ACD011708F0A6CF0E941B05809076
:103D5000460590904705A0904805B0904905681920
:103D600079098A099B096D3371058105910508F46C
:103D700092CF101B143008F013E080914505180F06
:103D8000B7CF80912203A981BA81AA0FBB1FAA0FC6
:103D9000BB1FBA8BA98B81111FC0FD01EE5EFC4FCA
:103DA00080819181A281B381E989FA89EE5FFC4F1C
:103DB00080839183A283B383E989FA89EE50FD4F12
:103DC00080819181A281B381E989FA89EE51FD4F09
:103DD00080839183A283B3830E941B05E989FA89BA
:103DE000EE50FD4F608371838283938380918C06B4
:103DF000B1E0B093FF0380932004109272041092FC
:103E0000710460E080E995E00E94C30B0E949F0A64
:103E100062E080918C060E94D00910927404809315
:103E200073040E94E002182F0E94E00290918B061A
:103E3000412F110F550B660B770B762F652F542FE3
:103E40004427482B092E04C07595679557954795CB
:103E50000A94D2F704C0440F551F661F771F9A9526
:103E6000D2F7F4E07595679557954795FA95D1F790
:103E70004093A6065093A7066093A8067093A906E0
:103E8000AAE0440F551F661F771FAA95D1F78DE84A
:103E900096E00E94CC086B017C01C092A206D092F1
:103EA000A306E092A406F092A50620E030E040E8E8
:103EB00056E46091960670919706809198069091CD
:103EC00099060E945C294B015C01C701B6010E9462
:103ED000FD289B01AC01C501B4010E946F2A20E0BE
:103EE00030E040E858E30E945C2960939E0670939E
:103EF0009F068093A0069093A10626E636E646EE3E
:103F00005FE30E945C2920E030E040E052E40E9440
:103F10006F2A60939A0670939B0680939C069093F9
:103F20009D068091AA068C708C3009F021C664E051
:103F30008091AB060E94D0091092740480937304A0
:103F40000E94E002C82E0E94E002182F0E94E002A8
:103F50000C2C000CDD08EE08FF08FE2CED2CDC2CF0
:103F6000CC24C12AFE2CED2CDC2CCC24C82A0E94A7
:103F7000E002E82FA8EEB3E0A70196010E941D2AF7
:103F80002091B306E3702E0F3327331F6B017C01A2
:103F900004C0F594E794D794C7942A95D2F7C70143
:103FA000B6010E94FD282091AC063091AD064091EB
:103FB000AE065091AF060E945C294B015C0120E0E7
:103FC00030E0A9010E94E42B20E030E040E05FE314
:103FD00087FDE2C5C501B4010E946F2A0E94872BAC
:103FE000C60ED71EE81EF91E20E030E040E052E485
:103FF00060919A0670919B0680919C0690919D0617
:104000000E946E2A26E636E646EE5FE30E94DB2A31
:104010004B015C01C701B6010E94FD282FE632E189
:1040200043E85AE30E945C29AB01BC01950184017D
:104030008D819E810E944E084B015C01F9E07F9EBC
:10404000F0011124FA83E983B701A6019AE0440F35
:10405000551F661F771F9A95D1F7CF018D59994F3C
:104060000E94CC086B017C0160919A0670919B06BE
:1040700080919C0690919D066093CE037093CF0330
:104080008093D0039093D10320E030E040E052E4ED
:104090000E946E2A26E636E646EE5FE30E94DB2AA1
:1040A0002B013C01C701B6012AE0959587957795CC
:1040B00067952A95D1F70E94FD282FE632E143E863
:1040C0005AE30E945C29AB01BC01930182018D81FE
:1040D0009E810E944E0809891A890A511C4F26E6C2
:1040E00036E646EE5FE30E945C2920E030E040E0E7
:1040F00052E40E946F2AD8016D937D938D939C9317
:10410000139726E636E646EE5FE3C501B4010E944A
:104110005C2920E030E040E052E40E946F2A20E079
:1041200030E04AE754E40E945C290E94872BAB01EF
:10413000BC0189819A81815C994F0E94CC08E989F0
:10414000FA89EE5EFC4F60837183828393832091B2
:10415000220321118FC0E989FA89EE50FD4FC080FA
:10416000D180E280F380E989FA89EE51FD4F008128
:10417000118122813381C01AD10AE20AF30A09F4BB
:1041800010C5E989FA89EE5FFC4F4080518062805A
:1041900073800E94FD284B015C01109100011123E6
:1041A00071F020E030E040E052E40E946E2A26E602
:1041B00036E646EE5FE30E94DB2A4B015C01C30159
:1041C000B2010E94FD28112361F020E030E040E0C0
:1041D00052E40E946E2A26E636E646EE5FE30E942F
:1041E000DB2A9B01AC01C501B4010E946E2A2FE6B7
:1041F00032E143E85AE30E945C294B015C01C701AC
:10420000B6010E94FD282FE632E143E85AE30E94FE
:104210005C299B01AC01C501B4010E94DB2A20E0AE
:1042200030E040E752E40E945C292FE632E143E8A7
:104230005AE30E94DB2A0E94872BAB01BC018981D3
:104240009A81855E994F0E94CC08E989FA89E454E5
:10425000FC4FFA83E9830E94FD282FE632E143E810
:104260005AE30E945C29A981BA816D937D938D9355
:104270009C931397ECEDF3E029853A85E217F30759
:1042800009F0B3CC109222038091FA06811122C06A
:104290000E94290D6536710581059105DCF40091B8
:1042A0002B0310912C0320912D0330912E036017C6
:1042B00071078207930771F060932B0370932C03AF
:1042C00080932D0390932E037093E5036093E40392
:1042D0000E94180D81E00E94290D65367105810547
:1042E0009105DCF400912F031091300320913103EC
:1042F00030913203601771078207930771F0609362
:104300002F037093300380933103909332037093A3
:10431000CD036093CC030E94BE0C8091FA068823E3
:1043200009F40CC2809142039091430318161906B8
:104330000CF08DC4C090DC03D090DD03E090DE0370
:10434000F090DF0380913A0390913B03092E000C1B
:10435000AA0BBB0BC816D906EA06FB0608F425C44F
:1043600080913C0390913D03092E000CAA0BBB0BDE
:10437000C816D906EA06FB0608F04AC400913A03BB
:1043800010913B0380913403909135039A83898384
:10439000C801012E000CAA0BBB0BA7019601281B1C
:1043A000390B4A0B5B0BCA01B9010E94FB286B0158
:1043B0007C0160913C0370913D03601B710B072EE3
:1043C000000C880B990B0E94FD289B01AC01C701D2
:1043D000B6010E94DB2A6B017C016091360370916B
:1043E000370349815A81641B750B072E000C880B1B
:1043F000990B0E94FD289B01AC01C701B6010E94E8
:104400005C296B017C01A981BA81BD01BB0F880BBE
:10441000990B0E94FD289B01AC01C701B6010E94C7
:104420006F2A6093B4067093B5068093B606909396
:10443000B7063091330320910001363409F0EEC302
:104440002223A1F020E030E040E052E40E946E2AF6
:1044500026E636E646EE5FE30E94DB2A6093B4066A
:104460007093B5068093B6069093B706E09101016C
:10447000E111E150B4E0EB9FF0011124EA51FC4F4F
:10448000608171818281938120910001222361F0FA
:1044900020E030E040E052E40E946E2A26E636E654
:1044A00046EE5FE30E94DB2A6093BC067093BD0674
:1044B0008093BE069093BF068091FA06882309F484
:1044C0002DC10E941B0569837A838B839C83809115
:1044D000E2069091E306A091E406B091E5064981D9
:1044E0005A816B817C81481B590B6A0B7B0B809135
:1044F000EE069091EF06A091F006B091F1064817F4
:1045000059076A077B0708F409C1E091DC06F091BE
:10451000DD064080518062807380E091E006F0917A
:10452000E106A301920160817181828193810E94E1
:104530006E2A6B017C012091EA063091EB064091D6
:10454000EC065091ED06C301B2010E946E2A6D8304
:104550007E838F8398872091D0063091D106409139
:10456000D2065091D306C701B6010E945C29209162
:10457000E6063091E7064091E8065091E9060E9470
:104580006F2A4B015C018092E6069092E706A092AA
:10459000E806B092E906E091FB06ED87E1111CC048
:1045A0002091CC063091CD064091CE065091CF0699
:1045B0006D817E818F8198850E945C299B01AC0171
:1045C000C501B4010E946E2A6093E6067093E70667
:1045D0008093E8069093E9062091E6063091E7067D
:1045E0004091E8065091E906298B3A8B4B8B5C8B06
:1045F0001091F6063091F7063E8B0091F806409137
:10460000F9064D8B212F402F5D8969897A898B8925
:104610009C890E94E42B18160CF02AC3812F9E89D6
:10462000A02FBD898093E6069093E706A093E80645
:10463000B093E9065D85552309F435C32091CC0676
:104640003091CD064091CE065091CF06C701B601FC
:104650000E945C296B017C012091D4063091D50623
:104660004091D6065091D7066D817E818F819885C5
:104670000E945C299B01AC016091E6067091E706FF
:104680008091E8069091E9060E946E2AA7019601A2
:104690000E946F2A6B017C019B01AC01612F7E8916
:1046A000802F9D890E94F62887FD18C01091F20680
:1046B0008091F3068E8B0091F4069091F5069D8B08
:1046C000212F382F402F592FB601C7010E94F628FD
:1046D00087FD04C01C2DDE8A0E2DFD8AE091DE06CA
:1046E000F091DF06812F9E89A02FBD898083918361
:1046F000A283B3834092EA065092EB066092EC06E6
:104700007092ED0629813A814B815C812093E2060B
:104710003093E3064093E4065093E5066091B806B3
:104720007091B9068091BA069091BB060E94872BC2
:104730007093E5036093E4030E94180D60E080E04D
:104740000E9486068091DC039091DD03A091DE0338
:10475000B091DF0388359240A105B10530F46FE1D7
:1047600072E08CE995E00E942E056091DC03709167
:10477000DD038091DE039091DF032CE330E040E025
:1047800050E00E94722CBA01A9012AE08CE995E060
:104790000E94730E6DE172E08CE995E00E942E0597
:1047A0006091DC037091DD038091DE039091DF0363
:1047B0002CE330E040E050E00E94722C6A3071053A
:1047C0008105910530F46BE172E08CE995E00E947F
:1047D0002E056091DC037091DD038091DE039091E2
:1047E000DF032CE330E040E050E00E94722CAB018C
:1047F000BC012AE08CE995E00E94730E1982AB851A
:10480000BC85ED91BC87AB87EE2309F41FC3B9814A
:10481000BF5FB983E150FF0BEE0FFF1FEE0FFF1FCD
:10482000EA51FC4FC080D180E280F380809100018A
:10483000882381F020E030E040E052E4C701B60177
:104840000E946E2A26E636E646EE5FE30E94DB2AE9
:104850006B017C0120E030E0A901C701B6010E9494
:10486000E42B20E030E040E05FE387FD20C2C70199
:10487000B6010E946F2A0E94872B272F862F922F26
:104880008931ECEF9E0714F489E19CEF883EF3E058
:104890009F0714F087EE93E09F938F932CE432E010
:1048A0003F932F933F922F920E94EC2C0F900F90EA
:1048B0000F900F900F900F905981513009F0FCC16B
:1048C00060E08DE00E94860667E172E08CE995E089
:1048D0000E942E0562ED73E08CE995E00E94640E63
:1048E00089859A85AB85BC858A179B0721F049810C
:1048F000423009F084CFC090CE03D090CF03E09037
:10490000D003F090D10380910001882381F020E052
:1049100030E040E052E4C701B6010E946E2A26E66C
:1049200036E646EE5FE30E94DB2A6B017C0120E065
:1049300030E0A901C701B6010E94E42B20E030E07D
:1049400040E05FE387FDBFC1C701B6010E946F2A47
:104950000E94872B272F862F922F8931BCEF9B0730
:1049600014F489E19CEF883EE3E09E0714F087EEA3
:1049700093E09F938F9380E592E09F938F933F9274
:104980002F920E94EC2C60E086E00E9486066FE089
:1049900072E08CE995E00E942E0562ED73E08CE9EF
:1049A00095E00E94640E0F900F900F900F900F9063
:1049B0000F908091FA0662E081118AC18DE00E9419
:1049C00086066CEF71E08CE995E00E942E0561E0AF
:1049D00080E00E94860667EF71E08CE995E00E9416
:1049E0002E056091BC037091BD038091BE03909130
:1049F000BF030E94872B7F936F934CE452E05F9339
:104A00004F933F922F920E94EC2C62ED73E08CE961
:104A100095E00E94640E0F900F900F900F900F90F2
:104A20000F908091FA0681112CC062E00E948606E8
:104A300062EF71E08CE995E00E942E058091CC0335
:104A40009091CD034E970CF0A5C11F921F92ACE43C
:104A5000B2E0BF93AF933F922F920E94EC2C0F9045
:104A60000F900F900F900F900F9062ED73E08CE914
:104A700095E00E94640E60EF71E08CE995E00E9481
:104A80002E0563E080E00E9486066BEE71E08CE903
:104A900095E00E942E058091CD038F938091CC03E9
:104AA0008F938CE492E09F938F933F922F920E947A
:104AB000EC2C62ED73E08CE995E00E94640E69EEE7
:104AC00071E08CE995E00E942E050E941B05009183
:104AD000E0031091E1032091E2033091E3030F9092
:104AE0000F900F900F900F900F9006171707280741
:104AF000390748F54091DC035091DD036091DE03F6
:104B00007091DF034F5F5F4F6F4F7F4F4031BEE0CB
:104B10005B076105710508F048C14093DC035093C1
:104B2000DD036093DE037093DF03D901C801885170
:104B30009C4FAF4FBF4F8093E0039093E103A0934E
:104B4000E203B093E3030E941B050091E003109180
:104B5000E1032091E2033091E303601771078207BC
:104B6000930708F02FC18DEB95E00E948D10EBCFDD
:104B700063E08091AB060E94D00910927404809388
:104B800073040E94E002C82E0E94E0020C2C000C6C
:104B9000DD08EE08FF08E6C9C501B4010E946E2ACF
:104BA0001DCA60E070E0CB0140CB8091380390914A
:104BB0003903029790933903809338034091380367
:104BC000509139035A83498344E050E06AE373E02B
:104BD00089819A810E949A0D44E050E064E373E079
:104BE00089819A818C599F4F0E949A0D80913C0334
:104BF00090913D03892B09F09DCB1092FA061092FB
:104C0000B8061092B9061092BA061092BB06B6CB3F
:104C100080913803909139030296CCCF333409F058
:104C200025CC213009F422CC20E030E040E151E4F1
:104C30000E945C2920E030E040EA50E40E94DB2A38
:104C400020E030E040E052E40E946F2A07CC8091DF
:104C50003E0390913F03A0914003B09141038093A4
:104C6000B4069093B506A093B606B093B706FECBF4
:104C70008090F2069090F306A090F406B090F506AE
:104C8000A501940169897A898B899C890E94F628FB
:104C900087FFD0CC8092E6069092E706A092E806C5
:104CA000B092E906C7CCC12CD12C7601D5CCC70176
:104CB000B6010E946E2ADFCD61E08DE00E9486067B
:104CC00063E172E003CEC701B6010E946E2A40CEB6
:104CD00080E00E9486066AE072E08CE995E00E941E
:104CE0002E058091CC039091CD034E970CF047C0D8
:104CF0001F921F922CE432E03F932F933F922F920A
:104D00000E94EC2C0F900F900F900F900F900F902F
:104D100062ED73E08CE995E00E94640E68E072E059
:104D20008CE995E00E942E0562E08DE00E948606E7
:104D300064E072E08CE995E00E942E056091B40673
:104D40007091B5068091B6069091B7060E94872BA8
:104D50007F936F93ECE4F2E0FF93EF933F922F92F7
:104D60000E94EC2C62ED73E08CE995E00E94640EE9
:104D70000F900F900F900F900F900F9028CE809172
:104D8000E5038F938091E4038F938CE492E09F93EB
:104D90008F93B4CF8091E5038F938091E4038F9339
:104DA0002CE432E03F932F9356CE8FE09EE0A0E0BC
:104DB000B0E08093DC039093DD03A093DE03B09317
:104DC000DF03B3CED901C80188519C4FAF4FBF4F0D
:104DD0008093E0039093E103A093E203B093E30395
:104DE0008091DC039091DD03A091DE03B091DF039D
:104DF0000196A11DB11D8031EEE09E07A105B10510
:104E0000C0F48093DC039093DD03A093DE03B093A2
:104E1000DF0380E090E0892B11F40C94D81D0E94F0
:104E2000BC05882311F40C94D81D0E9400000C943A
:104E3000D81D2FE03EE040E050E02093DC033093AB
:104E4000DD034093DE035093DF03E3CF49855A85AA
:104E50008B859C854817590709F0D1CC4CCD662726
:104E600077270C948527FC0188279927E8942191BE
:104E70002032E9F3293010F02E30C8F32B3241F004
:104E80002D3239F4689404C00E947D27820F911D51
:104E9000219120532A30C0F31EF4909581959F4FA5
:104EA00008954DEF56E00E9456270895FA01A1910A
:104EB000B081009719F41097E1F0CD01DC01CD012C
:104EC0000D90002011F4C00113C0FB012191222399
:104ED00019F02015D9F7F3CFFB012191201519F412
:104EE0001E92119606C02223C1F70D900020A1F753
:104EF000D001FA01A193B08308957AE0979F902D95
:104F0000879F802D910D11240895B0E0A0E0EBE87B
:104F1000F7E20C942E2A5C017B016115710519F0F2
:104F2000DB018D939C9385010F5F1F4FF501D081AD
:104F30008D2F90E00E94D5286C01892BB9F5DD32C8
:104F4000B9F50F5F1F4FD5011196DC91C1E05801F3
:104F5000F1E0AF1AB10843E050E068E970E0C50144
:104F60000E94DE28892B69F5680182E0C80ED11CF9
:104F700045E050E063E970E0C6010E94DE28892B1D
:104F800021F4680197E0C90ED11CE114F10419F075
:104F9000D701CD92DC9260E070E080E89FEFC11114
:104FA000FFC060E070E080E89FE7FAC05801BBCF27
:104FB000DB3229F485010E5F1F4FF501D181C0E07E
:104FC000C6CF43E050E060E970E0C5010E94DE28F2
:104FD000892BE9F0F80110E000E020E030E0A901C1
:104FE0005F01B0ED8B2E8D0E89E08815C8F19C2EE7
:104FF000689491F88C2F8870C2FF16C0811102C08E
:105000000F5F1F4F3196D501DC91C92DE9CFE11417
:10501000F10429F00E5F1F4FF7011183008360E058
:1050200070E080EC9FE7BCC0882311F001501109AB
:10503000A5E0B0E00E941D2A9B01AC01220F331FA6
:10504000441F551F280D311D411D511D283999E957
:105050003907490799E15907A8F2C6609C2ED2CFBB
:10506000AEEF8A1206C0C3FD3CC09C2E689493F834
:10507000C9CFDF7DD534A9F580818D3239F4C06187
:10508000DF011296818162E070E006C0DF018B32A1
:10509000C1F3119661E070E080535D01A61AB70A72
:1050A0008A30F8F4E0E8CE16ECE0DE065CF4B601F7
:1050B000660F771F660F771FC60ED71ECC0CDD1C40
:1050C000C80ED11C5D01FFEFAF1ABF0A8C9180534F
:1050D0008A30A8F1C4FF03C0D194C194D1080C0D4B
:1050E0001D1DC1FF09C0E114F10431F081E0A81ACF
:1050F000B108D701AD92BC92CA01B9010E94FB2848
:10510000C370C33009F490584B015C0120E030E0DB
:10511000A9010E94F628882309F440C0C7ECD0E01A
:1051200017FF05C0119501951109CFEAD0E06E0176
:10513000B8E1CB1AD10880E2E82EF12C0FC0D501DE
:10514000B1CFFE0125913591459154910E191F095A
:10515000C501B4010E945C294B015C01D501C40169
:105160000E151F0574F72497F594E794CC16DD0609
:10517000A9F78A2F880F8B2F881F8F3F49F020E0D7
:1051800030E0A901C501B4010E94F628811106C0D2
:1051900082E290E0909300078093FF06C501B4017E
:1051A000CDB7DEB7ECE00C944A2A91110C94C929D2
:1051B000803219F089508550C8F70895FB01DC0151
:1051C0004150504088F08D9181341CF08B350CF4A7
:1051D000805E659161341CF06B350CF4605E861B5B
:1051E000611171F3990B0895881BFCCF0E94382937
:1051F00008F481E00895E89409C097FB3EF4909587
:105200008095709561957F4F8F4F9F4F9923A9F09F
:10521000F92F96E9BB279395F6958795779567952E
:10522000B795F111F8CFFAF4BB0F11F460FF1BC072
:105230006F5F7F4F8F4F9F4F16C0882311F096E905
:1052400011C0772321F09EE8872F762F05C06623B3
:1052500071F096E8862F70E060E02AF09A95660F6C
:10526000771F881FDAF7880F9695879597F9089525
:10527000990F0008550FAA0BE0E8FEEF1616170667
:10528000E807F907C0F012161306E407F50798F0CF
:10529000621B730B840B950B39F40A2661F0232BE8
:1052A000242B252B21F408950A2609F4A140A69564
:1052B0008FEF811D811D08950E946F290C94E329B1
:1052C0000E94D52938F00E94DC2920F0952311F0A6
:1052D0000C94CC290C94D22911240C94172A0E94E6
:1052E000F42970F3959FC1F3950F50E0551F629F0D
:1052F000F001729FBB27F00DB11D639FAA27F00D2F
:10530000B11DAA1F649F6627B00DA11D661F829F55
:105310002227B00DA11D621F739FB00DA11D621F3A
:10532000839FA00D611D221F749F3327A00D611D57
:10533000231F849F600D211D822F762F6A2F112439
:105340009F5750409AF0F1F088234AF0EE0FFF1F6C
:10535000BB1F661F771F881F91505040A9F79E3FC3
:10536000510580F00C94CC290C94172A5F3FE4F38C
:10537000983ED4F3869577956795B795F795E79519
:105380009F5FC1F7FE2B880F911D9695879597F922
:10539000089599278827089597F99F6780E870E016
:1053A00060E008959FEF80EC089500240A9416169B
:1053B000170618060906089500240A941216130603
:1053C000140605060895092E0394000C11F4882391
:1053D00052F0BB0F40F4BF2B11F460FF04C06F5FAD
:1053E0007F4F8F4F9F4F089557FD9058440F551F83
:1053F00059F05F3F71F04795880F97FB991F61F057
:105400009F3F79F087950895121613061406551FCD
:10541000F2CF4695F1DF08C0161617061806991F39
:10542000F1CF86957105610508940895E894BB272E
:1054300066277727CB0197F908950E945F2AA59FD9
:10544000900DB49F900DA49F800D911D112408957F
:105450002F923F924F925F926F927F928F929F9284
:10546000AF92BF92CF92DF92EF92FF920F931F9372
:10547000CF93DF93CDB7DEB7CA1BDB0B0FB6F89423
:10548000DEBF0FBECDBF09942A88398848885F8463
:105490006E847D848C849B84AA84B984C884DF80D4
:1054A000EE80FD800C811B81AA81B981CE0FD11DB8
:1054B0000FB6F894DEBF0FBECDBFED010895A29FD9
:1054C000B001B39FC001A39F700D811D1124911DD8
:1054D000B29F700D811D1124911D08955058BB2756
:1054E000AA270E94862A0C94E3290E94D52938F025
:1054F0000E94DC2920F039F49F3F19F426F40C9423
:10550000D2290EF4E095E7FB0C94CC29E92F0E94F8
:10551000F42958F3BA17620773078407950720F038
:1055200079F4A6F50C94162A0EF4E0950B2EBA2FFA
:10553000A02D0B01B90190010C01CA01A001112499
:10554000FF27591B99F0593F50F4503E68F11A1645
:10555000F040A22F232F342F4427585FF3CF4695D6
:1055600037952795A795F0405395C9F77EF41F16F8
:10557000BA0B620B730B840BBAF09150A1F0FF0FC2
:10558000BB1F661F771F881FC2F70EC0BA0F621FAE
:10559000731F841F48F4879577956795B795F7959E
:1055A0009E3F08F0B0CF9395880F08F09927EE0F33
:1055B0009795879508950E94EF2A0C94E3290E94FD
:1055C000DC2958F00E94D52940F029F45F3F29F0EA
:1055D0000C94CC2951110C94172A0C94D2290E94B6
:1055E000F42968F39923B1F3552391F3951B550BD7
:1055F000BB27AA2762177307840738F09F5F5F4FA6
:10560000220F331F441FAA1FA9F335D00E2E3AF0E4
:10561000E0E832D091505040E695001CCAF72BD0FC
:10562000FE2F29D0660F771F881FBB1F261737074D
:105630004807AB07B0E809F0BB0B802DBF01FF277F
:1056400093585F4F3AF09E3F510578F00C94CC2967
:105650000C94172A5F3FE4F3983ED4F38695779530
:105660006795B795F7959F5FC9F7880F911D969538
:10567000879597F90895E1E0660F771F881FBB1F94
:10568000621773078407BA0720F0621B730B840B41
:10569000BA0BEE1F88F7E095089529F416F00C94E4
:1056A000CC290C94162A0C94D2290E94FC29A8F328
:1056B0009638A0F707F80F92E8942BE33AEA48EB04
:1056C0005FE70E9472290F920F920F924DB75EB75B
:1056D0000F920E942B2CE8E6F0E00E94BD2B4F9128
:1056E0005F91EF91FF91E595EE1FFF1F49F0FE5787
:1056F000E0684427EE0F441FFA95E1F74195550BFA
:105700000E94F52B0F9007FE0C94E92B08950E9440
:105710008E2B6894B1110C94172A08950E94FC29CD
:1057200088F09F5798F0B92F9927B751B0F0E1F062
:10573000660F771F881F991F1AF0BA95C9F714C012
:10574000B13091F00E94162AB1E008950C94162A07
:10575000672F782F8827B85F39F0B93FCCF386954B
:1057600077956795B395D9F73EF4909580957095A8
:1057700061957F4F8F4F9F4F0895DF93CF931F9376
:105780000F93FF92EF92DF927B018C01689406C029
:10579000DA2EEF010E946F29FE01E894A591259170
:1057A000359145915591A6F3EF010E94862AFE019D
:1057B0009701A801DA9469F7DF90EF90FF900F91BD
:1057C0001F91CF91DF9108950E94382908F48FEF3F
:1057D00008959B01AC0160E070E080E89FE30C94C9
:1057E000DB2A0C94CC290C94642C0E94FC29D8F35D
:1057F0009923C9F3940F511DA3F39150504094F095
:1058000059F0882332F0660F771F881F915050405F
:10581000C1F79E3F51052CF7880F911D96958795EE
:1058200097F908955F3FACF0983E9CF0BB278695B2
:1058300077956795B79508F4B1609395C1F7BB0F5D
:1058400058F711F460FFE8CF6F5F7F4F8F4F9F4F86
:10585000E3CF0C94172AFA01DC01AA0FBB1F9B01AE
:10586000AC01BF5728F4222733274427507820C0A3
:10587000B75190F4AB2F0024469537952795011C1E
:10588000A395D2F3002071F0220F331F441FB3956C
:10589000DAF30ED00C946E2A61307105A0E88A0705
:1058A000B94630F49B01AC016627772788279078AA
:1058B000309621F0208331834283538308950E94E0
:1058C0003829880B990B08959F3F31F0915020F4AF
:1058D000879577956795B795880F911D96958795CC
:1058E00097F90895A1E21A2EAA1BBB1BFD010DC05A
:1058F000AA1FBB1FEE1FFF1FA217B307E407F50780
:1059000020F0A21BB30BE40BF50B661F771F881F5B
:10591000991F1A9469F760957095809590959B01F1
:10592000AC01BD01CF010895052E97FB1EF4009434
:105930000E94AB2C57FD07D00E94722C07FC03D0AD
:105940004EF40C94AB2C50954095309521953F4FDB
:105950004F4F5F4F089590958095709561957F4F5B
:105960008F4F9F4F0895EE0FFF1F0590F491E02D8C
:10597000099481E090E0F8940C948D2F9111089592
:1059800081568A5108F4805285580895FB01DC0144
:105990008D91019080190110D9F3990B0895FB01A5
:1059A000DC014150504030F08D910190801919F484
:1059B0000020B9F7881B990B0895FB01DC014150C9
:1059C000504048F001900D920020C9F701C01D928F
:1059D00041505040E0F70895AEE0B0E0E2EFFCE265
:1059E0000C94362A0D891E8986E08C831A830983DC
:1059F0008FEF9FE79E838D83AE01475E5F4F6F8978
:105A0000788DCE0101960E940F2D2F813885020FCF
:105A1000131FF80110822E96E4E00C94522AABE09A
:105A2000B0E0E5E1FDE20C94282A7C013B018A010B
:105A3000FC0117821682838181FFC8C1CE010196C5
:105A40005C01F7019381F30193FD859193FF8191AF
:105A50003F01882309F453C1853239F493FD8591C0
:105A600093FF81913F01853229F4B70190E00E94B4
:105A7000FF2EE7CF912C212C312CFFE1F31538F0CC
:105A80008B3211F190F4803209F1833229F137FC25
:105A90003CC020ED280F2A3050F536FE20C08AE0A9
:105AA000989E200D1124922E06C08D3291F08033E5
:105AB00071F7689430F8F30193FD859193FF81911C
:105AC0003F018111DACF21C0689431F8689432F82F
:105AD000F2CF689433F8EFCF689434F8ECCFEAE073
